:100000000C946D000C9495000C9495000C94950044
:100010000C9495000C9495000C9495000C9495000C
:100020000C9495000C9495000C9495000C949500FC
:100030000C9495000C9495000C9495000C949500EC
:100040000C94BE040C9495000C942E050C94080599
:100050000C9495000C9495000C9495000C949500CC
:100060000C9495000C94950005A84CCDB2D44EB9D3
:100070003836A9020C50B9918688083CA6AAAA2A4B
:10008000BE000000803F00000000240027002A007E
:1000900000000000250028002B00040404040404D0
:1000A0000404020202020202030303030303010227
:1000B00004081020408001020408102001020408F6
:1000C00010200000000800020100000304070000E7
:1000D000000000000000BC05370711241FBECFEF51
:1000E000D8E0DEBFCDBF11E0A0E0B1E0E8ECF6E182
:1000F00002C005900D92A033B107D9F722E0A0E32A
:10010000B1E001C01D92AA34B207E1F710E0CCE6DD
:10011000D0E004C02197FE010E94250ACB36D1070A
:10012000C9F70E9410060C94570B0C94000090E045
:10013000FC01EE53FF4F2491FC01E255FF4F349137
:10014000FC01E656FF4FE491EE23B9F0222339F08B
:100150002330F1F098F4213009F1223019F1F0E068
:10016000EE0FFF1FE057FF4FA591B4918FB7F894A2
:10017000EC9130953E233C938FBF08952730A9F032
:100180002830C9F0243059F7809180008F7D03C05A
:10019000809180008F7780938000E1CF84B58F7746
:1001A00084BDDDCF84B58F7DFBCF8091B0008F778C
:1001B0008093B000D4CF8091B0008F7DF9CFCF93E2
:1001C000DF93EC016885693C01F129853A8561502E
:1001D000B9F070E08FEF98EC0E94110AF9014C81A0
:1001E0005D81CF01821B930B8417950760F44081DA
:1001F000469FC001479F900D112490833196EFCF09
:1002000070E060E0EBCF89EC8887DF91CF910895B3
:10021000CF93DF9390E0FC01E255FF4F2491865687
:100220009F4FFC0184918823D1F090E0880F991FA3
:10023000FC01EA57FF4FA591B491FC01E057FF4F35
:10024000C591D49161110EC09FB7F8948C91E22FA3
:10025000E0958E238C932881E223E8839FBFDF9172
:10026000CF9108958FB7F894EC91E22BEC938FBF68
:10027000F6CF3FB7F8948091370190913801A09163
:100280003901B0913A0126B5A89B05C02F3F19F05E
:100290000196A11DB11D3FBFBA2FA92F982F882706
:1002A000BC01CD01620F711D811D911D42E0660FE1
:1002B000771F881F991F4A95D1F708958F929F92B3
:1002C000AF92BF92CF92DF92EF92FF926B017C01CF
:1002D0000E9439014B015C01C114D104E104F10415
:1002E000B9F00E943901681979098A099B09683EA9
:1002F00073408105910580F321E0C21AD108E1081D
:10030000F10888EE880E83E0981EA11CB11CE4CF92
:10031000FF90EF90DF90CF90BF90AF909F908F9025
:100320000895AF92BF92CF92DF92EF92FF920F9318
:100330001F93CF93DF936C017B018B01040F151F7B
:10034000EB015E01AE18BF08C017D10759F06991E3
:10035000D601ED91FC910190F081E02DC601099547
:10036000892B79F7C501DF91CF911F910F91FF90F4
:10037000EF90DF90CF90BF90AF900895FC01538D28
:10038000448D252F30E0842F90E0821B930B54176F
:1003900010F0CF96089501970895FC01918D828DFC
:1003A000981761F0A28DAE0FBF2FB11D5D968C9195
:1003B000928D9F5F9F73928F90E008958FEF9FEFD4
:1003C0000895FC01918D828D981731F0828DE80F90
:1003D000F11D858D90E008958FEF9FEF0895FC014A
:1003E000918D228D892F90E0805C9F4F821B910917
:1003F0008F73992708958BE391E00E94EF0121E02C
:10040000892B09F420E0822F089580E090E0892B69
:1004100029F00E94FB0181110C9400000895FC0159
:10042000A48DA80FB92FB11DA35ABF4F2C91848D55
:1004300090E001968F739927848FA689B7892C93B2
:10044000A089B1898C91837080648C93938D848D05
:10045000981306C00288F389E02D80818F7D808308
:100460000895EF92FF920F931F93CF93DF93EC01C8
:1004700081E0888F9B8D8C8D98131AC0E889F9894B
:10048000808185FF15C09FB7F894EE89FF8960834E
:10049000E889F98980818370806480839FBF81E0CF
:1004A00090E0DF91CF911F910F91FF90EF90089511
:1004B000F62E0B8D10E00F5F1F4F0F731127E02EEC
:1004C0008C8D8E110CC00FB607FCFACFE889F98924
:1004D000808185FFF5CFCE010E940F02F1CFEB8D19
:1004E000EC0FFD2FF11DE35AFF4FF0829FB7F894F8
:1004F0000B8FEA89FB8980818062CFCFCF93DF9316
:10050000EC01888D8823B9F0AA89BB89E889F9892B
:100510008C9185FD03C0808186FD0DC00FB607FC60
:10052000F7CF8C9185FFF2CF808185FFEDCFCE0193
:100530000E940F02E9CFDF91CF910895CF92DF9211
:10054000EF92FF920F931F93CF93DF93CDB7DEB758
:1005500029970FB6F894DEBF0FBECDBF8C01DC012A
:1005600019968D919C91892B09F473C00E943901D1
:10057000F801C784D088E188F2886C157D058E0566
:100580009F0520F46787708B818B928BF801C7845D
:10059000D088E188F2886C197D098E099F096C3238
:1005A00071408105910510F3F894D80114968D914E
:1005B0009C9115979A8389831996ED91FC917F01FF
:1005C000BFEFEB1AFB0A80818987F80190810388CD
:1005D000F489E02DD80155968C91992309F448C0EF
:1005E0009081982B98879081809589238F838F8124
:1005F0008C8388E08B8358856F8149853B812C8172
:1006000089819A81D701508347FD252F3A95208310
:10061000262F39F0441F00C000006083000000C096
:10062000F2CF38E04D9160830000019761F7D80167
:100630005496FC93EE93539749873B832C839A837C
:10064000898378940E943901F8016787708B818BC8
:10065000928B29960FB6F894DEBF0FBECDBFDF9107
:10066000CF911F910F91FF90EF90DF90CF90089561
:100670009081982B98879081809589238F838F8193
:100680008E8388E08D8358856F8149853D812E81D9
:1006900089819A81D701508347FD252F00C000C072
:1006A000208300C000C000C000C000C06083000004
:1006B000262F3A9541F0441F000000C000C000C042
:1006C00000C000C0E8CF38E04D9100C0608300C09A
:1006D000019709F7D8015496FC93EE9353974987F5
:1006E0003D832E83ACCFCF93DF93EC018E819F812E
:1006F00097FD0BC061E00E9408018E810E94970067
:1007000081E08983DF91CF910895198280E0FACF4B
:100710002F923F924F925F926F927F928F929F9211
:10072000AF92BF92CF92DF92EF92FF920F931F93FF
:10073000CF93DF93CDB7DEB728970FB6F894DEBF1F
:100740000FBECDBF98878F837A8369831A0110E02B
:1007500000E0B8016219730977FF03C071956195D4
:100760007109072E000C880B990B0E946C086B0115
:100770007C0120E030E040E450E40E94B807181605
:100780000CF4EDC020E030E040E450E4C701B601D5
:100790000E94C20720ED3FE049E450E40E945B095B
:1007A0000E94BD0720E030E040E85FE30E944C0774
:1007B00020E030E040E05FE30E945B096B017C01D8
:1007C000AF81B88512968D919C910817190708F092
:1007D000A2C0A701960160E070E080E89FE30E945C
:1007E0004B074B015C0120E030E048E052E4C701D8
:1007F000B6010E945B092B013C0120E030E04AE891
:1008000052E4C501B4010E945B096B837C838D8334
:100810009E8320E030E04BE053E4C701B6010E9424
:100820005B099B01AC016B817C818D819E810E9463
:100830004C070E943408C62ED12CF12CE12CFE2C42
:10084000ED2CDC2CCC2420E030E04BE053E4C5015F
:10085000B4010E945B09A30192010E944C070E940F
:100860003408E62A20E030E048E951E4C501B4014B
:100870000E945B09A30192010E944C070E94340868
:10088000C62AA701662777278D2C9E2CAF2CBB2468
:10089000282D3C2DEF81F8858085882391F0E82F65
:1008A000F0E0E49F9001E59F300DF49F300D11249E
:1008B000432F889D40011124292D8C9D6001112416
:1008C0003D2DAF81B8851E96EC911E9719968D919E
:1008D0009C911A971B965C91B801E51344C0660F72
:1008E000771F600F711F860F971FAF81B8851B960A
:1008F000EC911B97E80FF92FF11D40831C96EC91AA
:100900001C97E80FF92FF11D20831D962C91820F63
:10091000911DFC0130830F5F1F4F89819A818017E1
:10092000910709F016CF8F81988528960FB6F89415
:10093000DEBF0FBECDBFDF91CF911F910F91FF9012
:10094000EF90DF90CF90BF90AF909F908F907F906F
:100950006F905F904F903F902F900C949E02C12C0F
:10096000D12C76012DCF660F771F660F771F860F6C
:10097000971FE80FF92FF11D1082B7CF1F920F922A
:100980000FB60F9211242F933F938F939F93AF93A2
:10099000BF938091330190913401A0913501B091C2
:1009A00036013091320123E0230F2D3758F501969F
:1009B000A11DB11D20933201809333019093340126
:1009C000A0933501B09336018091370190913801A1
:1009D000A0913901B0913A010196A11DB11D8093FA
:1009E000370190933801A0933901B0933A01BF9138
:1009F000AF919F918F913F912F910F900FBE0F90CC
:100A00001F90189526E8230F0296A11DB11DD2CF85
:100A10001F920F920FB60F9211242F933F934F9373
:100A20005F936F937F938F939F93AF93BF93EF9356
:100A3000FF938BE391E00E940F02FF91EF91BF9132
:100A4000AF919F918F917F916F915F914F913F9166
:100A50002F910F900FBE0F901F9018951F920F921D
:100A60000FB60F9211242F938F939F93EF93FF93C1
:100A7000E0914B01F0914C018081E0915101F091A6
:100A8000520182FD1BC09081809154018F5F8F7352
:100A900020915501821741F0E0915401F0E0E55CAE
:100AA000FE4F958F80935401FF91EF919F918F910D
:100AB0002F910F900FBE0F901F9018958081F4CF4B
:100AC000CF92DF92EF92FF920F931F93CF93DF931A
:100AD000EC016B01F42EE52E198218861F86188A08
:100AE000198A1A8A81E08E878B871C8692E09D87FF
:100AF00088838B01000F111F060F171F1D830C83A6
:100B0000C8010E942B0A9A878987009781F1A80162
:100B100070E060E00E94500BDB82CA82FE82EF82AE
:100B20008981882339F061E08F2D0E9408018F2D83
:100B30000E9497008F2D9E2DFC01E656FF4FE491F9
:100B4000F0E0EE0FFF1FE057FF4F259134913C8BF3
:100B50002B8BFC01E255FF4FE491ED8BDF91CF91A0
:100B60001F910F91FF90EF90DF90CF9008951D821D
:100B70001C821B821A82D2CFEBE3F1E01382128235
:100B800088EE93E0A0E0B0E084839583A683B783EA
:100B90008AE091E09183808385EC90E0958784875B
:100BA00084EC90E09787868780EC90E0918B808B37
:100BB00081EC90E0938B828B82EC90E0958B848B20
:100BC00086EC90E0978B868B118E128E138E148E8E
:100BD00046E050E06AE070E080E392E00E94600549
:100BE00047E050E067E070E08AE192E00E94600533
:100BF00048E050E065E070E084E092E00E9460052B
:100C000049E050E064E070E08EEE91E00E94600503
:100C10004AE050E064E070E088ED91E00C946005FB
:100C2000789484B5826084BD84B5816084BD85B5C7
:100C3000826085BD85B5816085BD80916E008160D3
:100C400080936E0010928100809181008260809379
:100C5000810080918100816080938100809180007B
:100C60008160809380008091B10084608093B100A6
:100C70008091B00081608093B00080917A008460A0
:100C800080937A0080917A00826080937A008091CC
:100C90007A00816080937A0080917A0080688093E6
:100CA0007A001092C100E0914B01F0914C0182E07A
:100CB0008083E0914701F09148011082E091490161
:100CC000F0914A0180E1808310925301E0914F013D
:100CD000F091500186E08083E0914D01F0914E014A
:100CE000808180618083E0914D01F0914E0180818F
:100CF00088608083E0914D01F0914E018081806891
:100D00008083E0914D01F0914E0180818F7D808341
:100D100043E150E068E171E08BE391E00E949101D2
:100D200042E050E06CE271E08BE391E00E949101BF
:100D300080E392E00E94730380E392E00E94DF0070
:100D400080E392E00E949E028AE192E00E94730397
:100D50008AE192E00E94DF008AE192E00E949E0216
:100D600084E092E00E94730384E092E00E94DF003E
:100D700084E092E00E949E028EEE91E00E94730356
:100D80008EEE91E00E94DF008EEE91E00E949E02C6
:100D900088ED91E00E94730388ED91E00E94DF00EE
:100DA00088ED91E00E949E0200E010E08DEFE82EB9
:100DB000FF24FA94C0913001D0913101AE016AE074
:100DC00070E080E392E00E948803AE0167E070E08B
:100DD0008AE192E00E948803AE0165E070E084E061
:100DE00092E00E948803AE0164E070E08EEE91E034
:100DF0000E948803AE0164E070E088ED91E00E94FB
:100E000088032196D0933101C09330012E9754F07E
:100E100068EC70E080E090E00E945E01F0923101A9
:100E2000E092300164E670E080E090E00E945E01B4
:100E30000115110509F4BECF0E94FB01882309F4B6
:100E4000B9CF0E940000B6CFCF93DF93EC01898524
:100E50009A850E94C70A8E819F8197FD05C060E038
:100E6000DF91CF910C940801DF91CF91089588ED27
:100E700091E00E9424078EEE91E00E94240784E016
:100E800092E00E9424078AE192E00E94240780E316
:100E900092E00C9424075058BB27AA270E946307AE
:100EA0000C940D090E94D40838F00E94DB0820F051
:100EB00039F49F3F19F426F40C94D1080EF4E09510
:100EC000E7FB0C94CB08E92F0E94320958F3BA17BC
:100ED000620773078407950720F079F4A6F50C9450
:100EE00054090EF4E0950B2EBA2FA02D0B01B90179
:100EF00090010C01CA01A0011124FF27591B99F090
:100F0000593F50F4503E68F11A16F040A22F232F9B
:100F1000342F4427585FF3CF469537952795A795EB
:100F2000F0405395C9F77EF41F16BA0B620B730B92
:100F3000840BBAF09150A1F0FF0FBB1F661F771F03
:100F4000881FC2F70EC0BA0F621F731F841F48F4B8
:100F5000879577956795B795F7959E3F08F0B0CF41
:100F60009395880F08F09927EE0F97958795089528
:100F70000E94A70808F481E008950E94E408E39520
:100F80000C941E090E94D6070C940D090E94DB08E0
:100F900058F00E94D40840F029F45F3F29F00C94E7
:100FA000CB0851110C9455090C94D1080E943209B8
:100FB00068F39923B1F3552391F3951B550BBB2788
:100FC000AA2762177307840738F09F5F5F4F220FCD
:100FD000331F441FAA1FA9F335D00E2E3AF0E0E8C4
:100FE00032D091505040E695001CCAF72BD0FE2F0E
:100FF00029D0660F771F881FBB1F261737074807A2
:10100000AB07B0E809F0BB0B802DBF01FF27935859
:101010005F4F3AF09E3F510578F00C94CB080C944A
:1010200055095F3FE4F3983ED4F38695779567952D
:10103000B795F7959F5FC9F7880F911D969587958E
:1010400097F90895E1E0660F771F881FBB1F6217AD
:1010500073078407BA0720F0621B730B840BBA0B6B
:10106000EE1F88F7E09508950E943B086894B1113F
:101070000C94550908950E943A0988F09F5798F0FA
:10108000B92F9927B751B0F0E1F0660F771F881F8D
:10109000991F1AF0BA95C9F714C0B13091F00E94A7
:1010A0005409B1E008950C945409672F782F8827CC
:1010B000B85F39F0B93FCCF3869577956795B395CE
:1010C000D9F73EF490958095709561957F4F8F4F3D
:1010D0009F4F0895E89409C097FB3EF49095809542
:1010E000709561957F4F8F4F9F4F9923A9F0F92FEE
:1010F00096E9BB279395F695879577956795B7956C
:10110000F111F8CFFAF4BB0F11F460FF1BC06F5F51
:101110007F4F8F4F9F4F16C0882311F096E911C063
:10112000772321F09EE8872F762F05C0662371F084
:1011300096E8862F70E060E02AF09A95660F771F98
:10114000881FDAF7880F9695879597F90895990F74
:101150000008550FAA0BE0E8FEEF16161706E80781
:10116000F907C0F012161306E407F50798F0621BA2
:10117000730B840B950B39F40A2661F0232B242B77
:10118000252B21F408950A2609F4A140A6958FEF96
:10119000811D811D089597F99F6780E870E060E0E8
:1011A00008959FEF80EC089500240A941616170600
:1011B00018060906089500240A9412161306140648
:1011C000050608950C94D1080E943A09D8F3E894D2
:1011D000E0E0BB279F57F0F02AED3FE049EC06C066
:1011E000EE0FBB0F661F771F881F28F0B23A620709
:1011F0007307840728F0B25A620B730B840BE395D4
:101200009A9572F7803830F49A95BB0F661F771F56
:10121000881FD2F790480C94CA09092E0394000C39
:1012200011F4882352F0BB0F40F4BF2B11F460FF80
:1012300004C06F5F7F4F8F4F9F4F0895EF93E0FF84
:1012400007C0A2EA2AED3FE049EC5FEB0E9463078A
:101250000E940D090F90039401FC9058E8E6F0E01D
:101260000C94D60957FD9058440F551F59F05F3F15
:1012700071F04795880F97FB991F61F09F3F79F0B8
:1012800087950895121613061406551FF2CF46953A
:10129000F1DF08C0161617061806991FF1CF8695BC
:1012A0007105610508940895E894BB2766277727A0
:1012B000CB0197F908950E946E090C940D090E94C4
:1012C000D40838F00E94DB0820F0952311F00C942C
:1012D000CB080C94D10811240C9455090E943209B2
:1012E00070F3959FC1F3950F50E0551F629FF00179
:1012F000729FBB27F00DB11D639FAA27F00DB11D92
:10130000AA1F649F6627B00DA11D661F829F22271A
:10131000B00DA11D621F739FB00DA11D621F839FA1
:10132000A00D611D221F749F3327A00D611D231F77
:10133000849F600D211D822F762F6A2F11249F57C5
:1013400050409AF0F1F088234AF0EE0FFF1FBB1FC8
:10135000661F771F881F91505040A9F79E3F510587
:1013600080F00C94CB080C9455095F3FE4F3983E51
:10137000D4F3869577956795B795F795E7959F5F31
:10138000C1F7FE2B880F911D9695879597F90895C3
:101390009F3F31F0915020F4879577956795B795E9
:1013A000880F911D9695879597F908959F938F9330
:1013B0007F936F93FF93EF939B01AC010E945B09B6
:1013C000EF91FF910E94EA092F913F914F915F9118
:1013D0000C945B09DF93CF931F930F93FF92EF92CF
:1013E000DF927B018C01689406C0DA2EEF010E9427
:1013F0006E09FE01E894A59125913591459155918D
:10140000A6F3EF010E946307FE019701A801DA9499
:1014100069F7DF90EF90FF900F911F91CF91DF91CF
:101420000895AA1BBB1B51E107C0AA1FBB1FA6172B
:10143000B70710F0A61BB70B881F991F5A95A9F77D
:1014400080959095BC01CD010895EE0FFF1F05908A
:10145000F491E02D09940F931F93CF93DF93823083
:10146000910510F482E090E0E0914802F091490289
:1014700030E020E0B0E0A0E0309799F4211531058C
:1014800009F44AC0281B390B24303105D8F58A816C
:101490009B816115710589F1FB0193838283FE01B4
:1014A00011C0408151810281138148175907E0F032
:1014B0004817590799F4109761F012960C931297F8
:1014C00013961C933296CF01DF91CF911F910F910C
:1014D00008950093480210934902F4CF2115310575
:1014E00051F04217530738F0A901DB019A01BD0101
:1014F000DF01F801C1CFEF01F9CF9093490280934A
:101500004802CDCFFE01E20FF31F81939193225049
:10151000310939832883D7CF209146023091470281
:10152000232B41F4209102013091030130934702B3
:1015300020934602209100013091010121153105CF
:1015400041F42DB73EB74091040150910501241B91
:10155000350BE0914602F0914702E217F307A0F441
:101560002E1B3F0B2817390778F0AC014E5F5F4FF9
:101570002417350748F04E0F5F1F509347024093E2
:101580004602819391939FCFF0E0E0E09CCFCF9310
:10159000DF930097E9F0FC01329713821282A09149
:1015A0004802B0914902ED0130E020E01097A1F42B
:1015B00020813181820F931F209146023091470292
:1015C0002817390709F061C0F0934702E0934602FB
:1015D000DF91CF910895EA01CE17DF07E8F54A8140
:1015E0005B819E0141155105B1F7E901FB83EA8357
:1015F00049915991C40FD51FEC17FD0761F4808103
:1016000091810296840F951FE901998388838281D5
:1016100093819B838A83F0E0E0E012968D919C9108
:1016200013970097B9F52D913C911197CD01029632
:10163000820F931F209146023091470228173907E5
:1016400039F6309751F51092490210924802B09342
:101650004702A0934602BCCFD383C283408151810D
:10166000840F951FC817D90761F44E5F5F4F8881BB
:101670009981480F591F518340838A819B819383AD
:1016800082832115310509F0B0CFF0934902E09330
:1016900048029ECFFD01DC01C0CF13821282D7CF5A
:1016A000DC0101C06D9341505040E0F7089510E017
:1016B000CCE6D0E004C0FE010E94250A2196CD367A
:0816C000D107C9F7F894FFCF30
:1016C80000004A0280000000000031029101BE01C2
:1016D8007E02EF01CD01E1014173796D6D65747290
:1016E8006963204C45442054726565000D0A00006A
:00000001FF
