:100000000C946D000C9495000C9495000C94950044
:100010000C9495000C9495000C9495000C9495000C
:100020000C9495000C9495000C9495000C949500FC
:100030000C9495000C9495000C9495000C949500EC
:100040000C94E4030C9495000C9454040C942E042A
:100050000C9495000C9495000C9495000C949500CC
:100060000C9495000C94950005A84CCDB2D44EB9D3
:100070003836A9020C50B9918688083CA6AAAA2A4B
:10008000BE000000803F00000000240027002A007E
:1000900000000000250028002B00040404040404D0
:1000A0000404020202020202030303030303010227
:1000B00004081020408001020408102001020408F6
:1000C00010200000000800020100000304070000E7
:1000D000000000000000D704A30611241FBECFEFCC
:1000E000D8E0DEBFCDBF11E0A0E0B1E0E0E9F4E18F
:1000F00002C005900D92A833B107D9F722E0A8E31A
:10010000B1E001C01D92A632B207E1F710E0CCE6E3
:10011000D0E004C02197FE010E941009CB36D10720
:10012000C9F70E9415050C943B0A0C94000090E05E
:10013000FC01EE53FF4F2491FC01E255FF4F349137
:10014000FC01E656FF4FE491EE23B9F0222339F08B
:100150002330F1F098F4213009F1223019F1F0E068
:10016000EE0FFF1FE057FF4FA591B4918FB7F894A2
:10017000EC9130953E233C938FBF08952730A9F032
:100180002830C9F0243059F7809180008F7D03C05A
:10019000809180008F7780938000E1CF84B58F7746
:1001A00084BDDDCF84B58F7DFBCF8091B0008F778C
:1001B0008093B000D4CF8091B0008F7DF9CFCF93E2
:1001C000DF93EC016885693C01F129853A8561502E
:1001D000B9F070E08FEF98EC0E94FC08F9014C81B7
:1001E0005D81CF01821B930B8417950760F44081DA
:1001F000469FC001479F900D112490833196EFCF09
:1002000070E060E0EBCF89EC8887DF91CF910895B3
:10021000CF93DF9390E0FC01E255FF4F2491865687
:100220009F4FFC0184918823D1F090E0880F991FA3
:10023000FC01EA57FF4FA591B491FC01E057FF4F35
:10024000C591D49161110EC09FB7F8948C91E22FA3
:10025000E0958E238C932881E223E8839FBFDF9172
:10026000CF9108958FB7F894EC91E22BEC938FBF68
:10027000F6CF3FB7F89480913F0190914001A09153
:100280004101B091420126B5A89B05C02F3F19F04E
:100290000196A11DB11D3FBFBA2FA92F982F882706
:1002A000BC01CD01620F711D811D911D42E0660FE1
:1002B000771F881F991F4A95D1F708958F929F92B3
:1002C000AF92BF92CF92DF92EF92FF926B017C01CF
:1002D0000E9439014B015C01C114D104E104F10415
:1002E000B9F00E943901681979098A099B09683EA9
:1002F00073408105910580F321E0C21AD108E1081D
:10030000F10888EE880E83E0981EA11CB11CE4CF92
:10031000FF90EF90DF90CF90BF90AF909F908F9025
:100320000895AF92BF92CF92DF92EF92FF920F9318
:100330001F93CF93DF936C017B018B01040F151F7B
:10034000EB015E01AE18BF08C017D10759F06991E3
:10035000D601ED91FC910190F081E02DC601099547
:10036000892B79F7C501DF91CF911F910F91FF90F4
:10037000EF90DF90CF90BF90AF900895FC01538D28
:10038000448D252F30E0842F90E0821B930B54176F
:1003900010F0CF96089501970895FC01918D828DFC
:1003A000981761F0A28DAE0FBF2FB11D5D968C9195
:1003B000928D9F5F9F73928F90E008958FEF9FEFD4
:1003C0000895FC01918D828D981731F0828DE80F90
:1003D000F11D858D90E008958FEF9FEF0895FC014A
:1003E000918D228D892F90E0805C9F4F821B910917
:1003F0008F739927089583E491E00E94EF0121E033
:10040000892B09F420E0822F089580E090E0892B69
:1004100029F00E94FB0181110C9400000895FC0159
:10042000A48DA80FB92FB11DA35ABF4F2C91848D55
:1004300090E001968F739927848FA689B7892C93B2
:10044000A089B1898C91837080648C93938D848D05
:10045000981306C00288F389E02D80818F7D808308
:100460000895EF92FF920F931F93CF93DF93EC01C8
:1004700081E0888F9B8D8C8D98131AC0E889F9894B
:10048000808185FF15C09FB7F894EE89FF8960834E
:10049000E889F98980818370806480839FBF81E0CF
:1004A00090E0DF91CF911F910F91FF90EF90089511
:1004B000F62E0B8D10E00F5F1F4F0F731127E02EEC
:1004C0008C8D8E110CC00FB607FCFACFE889F98924
:1004D000808185FFF5CFCE010E940F02F1CFEB8D19
:1004E000EC0FFD2FF11DE35AFF4FF0829FB7F894F8
:1004F0000B8FEA89FB8980818062CFCFCF93DF9316
:10050000EC01888D8823B9F0AA89BB89E889F9892B
:100510008C9185FD03C0808186FD0DC00FB607FC60
:10052000F7CF8C9185FFF2CF808185FFEDCFCE0193
:100530000E940F02E9CFDF91CF9108958F929F9291
:10054000AF92BF92CF92DF92EF92FF92CF93DF9361
:10055000FC014A01AA24BB24C32ED42EE52EFF247D
:10056000DC2DC22F8085982D882391F0C82FD0E0F4
:10057000C89DD001C99DB00DD89DB00D11249B2FF1
:100580008C9D60011124DD2D829F90011124C32FC9
:10059000A685218532858385A81321C0AB01440F30
:1005A000551F640F751F620F731FA385A60FB72F0A
:1005B000B11D9C93A485A60FB72FB11DDC93858533
:1005C000680F711DFB01C083DF91CF91FF90EF9009
:1005D000DF90CF90BF90AF909F908F900895660F5F
:1005E000771F660F771F620F731FA60FB72FB11DFE
:1005F0001C92DBCFCF92DF92EF92FF920F931F936B
:10060000CF93DF93CDB7DEB729970FB6F894DEBF4F
:100610000FBECDBF8C01DC0119968D919C91892B69
:1006200009F473C00E943901F801C784D088E188B9
:10063000F2886C157D058E059F0520F46787708B09
:10064000818B928BF801C784D088E188F2886C197D
:100650007D098E099F096C3271408105910510F367
:10066000F894D80114968D919C9115979A8389835B
:100670001996ED91FC917F01BFEFEB1AFB0A808187
:100680008987F80190810388F489E02DD801559677
:100690008C91992309F448C09081982B9887908178
:1006A000809589238F838F818C8388E08B83588505
:1006B0006F8149853B812C8189819A81D701508343
:1006C00047FD252F3A952083262F39F0441F00C07F
:1006D00000006083000000C0F2CF38E04D916083DD
:1006E0000000019761F7D8015496FC93EE9353975D
:1006F00049873B832C839A83898378940E943901AC
:10070000F8016787708B818B928B29960FB6F894CE
:10071000DEBF0FBECDBFDF91CF911F910F91FF9034
:10072000EF90DF90CF9008959081982B98879081DB
:10073000809589238F838F818E8388E08D83588570
:100740006F8149853D812E8189819A81D7015083AE
:1007500047FD252F00C000C0208300C000C000C09E
:1007600000C000C060830000262F3A9541F0441F6E
:10077000000000C000C000C000C000C0E8CF38E0EA
:100780004D9100C0608300C0019709F7D8015496CD
:10079000FC93EE93539749873D832E83ACCFCF9341
:1007A000DF93EC018E819F8197FD0BC061E00E9479
:1007B00008018E810E94970081E08983DF91CF91AB
:1007C0000895198280E0FACF1F920F920FB60F9210
:1007D00011242F933F938F939F93AF93BF93809157
:1007E0003B0190913C01A0913D01B0913E013091BF
:1007F0003A0123E0230F2D3758F50196A11DB11DB5
:1008000020933A0180933B0190933C01A0933D01DA
:10081000B0933E0180913F0190914001A091410130
:10082000B09142010196A11DB11D80933F019093AB
:100830004001A0934101B0934201BF91AF919F91BC
:100840008F913F912F910F900FBE0F901F90189591
:1008500026E8230F0296A11DB11DD2CF1F920F9241
:100860000FB60F9211242F933F934F935F936F9383
:100870007F938F939F93AF93BF93EF93FF9383E403
:1008800091E00E940F02FF91EF91BF91AF919F9174
:100890008F917F916F915F914F913F912F910F9029
:1008A0000FBE0F901F9018951F920F920FB60F92C8
:1008B00011242F938F939F93EF93FF93E091530114
:1008C000F09154018081E0915901F0915A0182FD2B
:1008D0001BC0908180915C018F5F8F7320915D01BF
:1008E000821741F0E0915C01F0E0ED5BFE4F958FE7
:1008F00080935C01FF91EF919F918F912F910F90C9
:100900000FBE0F901F9018958081F4CF0F931F9307
:10091000CF93DF93EC01162F072F198218861F86BD
:10092000188A198A1A8A81E08E878B871C8692E042
:100930009D8788838AE590E09D838C830E941609B9
:100940009A878987009771F12AE5FC0111922A950F
:10095000E9F78EE190E09B838A831E830F83898170
:10096000882339F061E0812F0E940801812F0E94C5
:100970009700812F902FFC01E656FF4FE491F0E0A5
:10098000EE0FFF1FE057FF4F259134913C8B2B8BCF
:10099000FC01E255FF4FE491ED8BDF91CF911F9168
:1009A0000F9108951D821C821B821A82D6CFE3E428
:1009B000F1E01382128288EE93E0A0E0B0E084833D
:1009C0009583A683B7838AE091E09183808385EC49
:1009D00090E09587848784EC90E09787868780EC09
:1009E00090E0918B808B81EC90E0938B828B82ECFA
:1009F00090E0958B848B86EC90E0978B868B118EA4
:100A0000128E138E148E66E070E08CE092E00E94ED
:100A1000860467E070E086EF91E00E94860468E05B
:100A200070E080EE91E00C948604789484B5826046
:100A300084BD84B5816084BD85B5826085BD85B582
:100A4000816085BD80916E00816080936E00109200
:100A5000810080918100826080938100809181007B
:100A6000816080938100809180008160809380000C
:100A70008091B10084608093B1008091B00081606A
:100A80008093B00080917A00846080937A00809196
:100A90007A00826080937A0080917A0081608093EE
:100AA0007A0080917A00806880937A001092C10069
:100AB000E0915301F091540182E08083E0914F0175
:100AC000F09150011082E0915101F091520180E1CA
:100AD000808310925B01E0915701F091580186E00C
:100AE0008083E0915501F09156018081806180837F
:100AF000E0915501F0915601808188608083E091FA
:100B00005501F0915601808180688083E091550104
:100B1000F091560180818F7D80834CE150E068E147
:100B200071E083E491E00E94910142E050E065E3CE
:100B300071E083E491E00E9491018CE092E00E94D8
:100B4000CF038CE092E00E94DF008CE092E00E94F4
:100B5000FA0286EF91E00E94CF0386EF91E00E94B7
:100B6000DF0086EF91E00E94FA0280EE91E00E94A1
:100B7000CF0380EE91E00E94DF0080EE91E00E94C2
:100B8000FA0290E0892E90E0992E2EEFA22EBB243F
:100B9000BA94D0E0C0E00091380110913901BE0153
:100BA000601B710B77FF03C0719561957109072E6A
:100BB000000C880B990B0E94F1066B017C0120E070
:100BC00030E040E050E40E94AF061816FCF020E050
:100BD00030E040E05FE3C701B6010E94B80720EDB6
:100BE0003FE049E450E40E94B80720E030E040E0F4
:100BF0005FE30E94B8070E94B4062B013C0120E08D
:100C000030E0A9010E94AF0687FF03C0412C512CA0
:100C1000320120E030E04FE753E4C301B2010E940B
:100C2000B8070E94B906C62ED12CF12CE12C760112
:100C3000DD24CC2420E030E040E753E4C301B201DE
:100C40000E94B8070E94B906D62A20E030E048E4A6
:100C500053E4C301B2010E94B8070E94B906C62A34
:100C600080910E0290910F02C817D90738F4A7019E
:100C70009601BE018CE092E00E949E028091F801F4
:100C80009091F901C817D90738F4A7019601BE0160
:100C900086EF91E00E949E028091E2019091E30133
:100CA000C817D90738F4A7019601BE0180EE91E07C
:100CB0000E949E022196CE31D10509F06CCF8CE0C6
:100CC00092E00E94FA0286EF91E00E94FA0280EE22
:100CD00091E00E94FA020F5F1F4F109339010093B9
:100CE00038010132110554F068EB7BE080E090E0C0
:100CF0000E945E01B0923901A092380168EC70E068
:100D000080E090E00E945E018114910409F441CFDB
:100D10000E94FB01882309F43CCF0E94000039CFD8
:100D2000CF93DF93EC0189859A850E94B2098E8169
:100D30009F8197FD05C060E0DF91CF910C94080181
:100D4000DF91CF91089580EE91E00E94900686EFAA
:100D500091E00E9490068CE092E00C9490060E9434
:100D60002C0708F481E008950E945207E3950C9443
:100D70007B070E94C0066894B1110C94B2070895D5
:100D80000E94970788F09F5798F0B92F9927B7517D
:100D9000B0F0E1F0660F771F881F991F1AF0BA951F
:100DA000C9F714C0B13091F00E94B107B1E00895C5
:100DB0000C94B107672F782F8827B85F39F0B93FB7
:100DC000CCF3869577956795B395D9F73EF49095D2
:100DD0008095709561957F4F8F4F9F4F0895E89450
:100DE00009C097FB3EF490958095709561957F4F73
:100DF0008F4F9F4F9923A9F0F92F96E9BB27939521
:100E0000F695879577956795B795F111F8CFFAF430
:100E1000BB0F11F460FF1BC06F5F7F4F8F4F9F4F61
:100E200016C0882311F096E911C0772321F09EE8BF
:100E3000872F762F05C0662371F096E8862F70E025
:100E400060E02AF09A95660F771F881FDAF7880FFF
:100E50009695879597F90895990F0008550FAA0B55
:100E6000E0E8FEEF16161706E807F907C0F01216BD
:100E70001306E407F50798F0621B730B840B950BC0
:100E800039F40A2661F0232B242B252B21F4089515
:100E90000A2609F4A140A6958FEF811D811D0895B2
:100EA0000C949F080E949707D8F3E894E0E0BB27D2
:100EB0009F57F0F02AED3FE049EC06C0EE0FBB0F64
:100EC000661F771F881F28F0B23A620773078407EE
:100ED00028F0B25A620B730B840BE3959A9572F764
:100EE000803830F49A95BB0F661F771F881FD2F7A2
:100EF00090480C949308EF93E0FF07C0A2EA2AED14
:100F00003FE049EC5FEB0E9436080E94C4080F9056
:100F1000039401FC9058E8E6F0E00C94A20857FD19
:100F20009058440F551F59F05F3F71F04795880F57
:100F300097FB991F61F09F3F79F0879508951216EE
:100F400013061406551FF2CF4695F1DF08C016169A
:100F500017061806991FF1CF86957105610508944B
:100F60000895E894BB2766277727CB0197F9089562
:100F70000E94CB070C94C4080E94B60838F00E9467
:100F8000BD0820F0952311F00C948B080C949F0859
:100F900011240C94B2070E948F0770F3959FC1F340
:100FA000950F50E0551F629FF001729FBB27F00D17
:100FB000B11D639FAA27F00DB11DAA1F649F66276C
:100FC000B00DA11D661F829F2227B00DA11D621FBB
:100FD000739FB00DA11D621F839FA00D611D221F75
:100FE000749F3327A00D611D231F849F600D211D59
:100FF000822F762F6A2F11249F5750409AF0F1F0DC
:1010000088234AF0EE0FFF1FBB1F661F771F881F44
:1010100091505040A9F79E3F510580F00C948B08E9
:101020000C94B2075F3FE4F3983ED4F3869577952E
:101030006795B795F795E7959F5FC1F7FE2B880FEA
:10104000911D9695879597F908950E94B60838F0F6
:101050000E94BD0820F039F49F3F19F426F40C9447
:101060009F080EF4E095E7FB0C948B08E92F0E9493
:101070008F0758F3BA17620773078407950720F0A4
:1010800079F4A6F50C94B1070EF4E0950B2EBA2F67
:10109000A02D0B01B90190010C01CA01A00111247E
:1010A000FF27591B99F0593F50F4503E68F11A162A
:1010B000F040A22F232F342F4427585FF3CF4695BB
:1010C00037952795A795F0405395C9F77EF41F16DD
:1010D000BA0B620B730B840BBAF09150A1F0FF0FA7
:1010E000BB1F661F771F881FC2F70EC0BA0F621F93
:1010F000731F841F48F4879577956795B795F79583
:101100009E3F08F0B0CF9395880F08F09927EE0F17
:1011100097958795089597F99F6780E870E060E05C
:1011200008959F3F31F0915020F48795779567950A
:10113000B795880F911D9695879597F908959FEF1C
:1011400080EC08959F938F937F936F93FF93EF931A
:101150009B01AC010E94B807EF91FF910E94D50856
:101160002F913F914F915F910C94B80700240A94FE
:101170001616170618060906089500240A94121672
:101180001306140605060895092E0394000C11F4A5
:10119000882352F0BB0F40F4BF2B11F460FF04C052
:1011A0006F5F7F4F8F4F9F4F0895DF93CF931F93B4
:1011B0000F93FF92EF92DF927B018C01689406C03F
:1011C000DA2EEF010E94CB07FE01E894A59125914C
:1011D000359145915591A6F3EF010E943608FE0125
:1011E0009701A801DA9469F7DF90EF90FF900F91D3
:1011F0001F91CF91DF910895AA1BBB1B51E107C03E
:10120000AA1FBB1FA617B70710F0A61BB70B881F96
:10121000991F5A95A9F780959095BC01CD01089525
:10122000EE0FFF1F0590F491E02D09940F931F938B
:10123000CF93DF938230910510F482E090E0E0914B
:101240002402F091250230E020E0B0E0A0E03097E9
:1012500099F42115310509F44AC0281B390B2430B3
:101260003105D8F58A819B816115710589F1FB01F2
:1012700093838283FE0111C04081518102811381D9
:1012800048175907E0F04817590799F4109761F08B
:1012900012960C93129713961C933296CF01DF91FE
:1012A000CF911F910F91089500932402109325026E
:1012B000F4CF2115310551F04217530738F0A90139
:1012C000DB019A01BD01DF01F801C1CFEF01F9CFC8
:1012D0009093250280932402CDCFFE01E20FF31FED
:1012E000819391932250310939832883D7CF20915C
:1012F000220230912302232B41F4209102013091EC
:1013000003013093230220932202209100013091A7
:1013100001012115310541F42DB73EB7409104017B
:1013200050910501241B350BE0912202F09123021C
:10133000E217F307A0F42E1B3F0B2817390778F0AC
:10134000AC014E5F5F4F2417350748F04E0F5F1F0B
:101350005093230240932202819391939FCFF0E018
:10136000E0E09CCFCF93DF930097E9F0FC01329748
:1013700013821282A0912402B0912502ED0130E087
:1013800020E01097A1F420813181820F931F2091DA
:101390002202309123022817390709F061C0F09327
:1013A0002302E0932202DF91CF910895EA01CE1744
:1013B000DF07E8F54A815B819E0141155105B1F7D0
:1013C000E901FB83EA8349915991C40FD51FEC17BA
:1013D000FD0761F4808191810296840F951FE901D8
:1013E00099838883828193819B838A83F0E0E0E004
:1013F00012968D919C9113970097B9F52D913C9180
:101400001197CD010296820F931F209122023091F5
:1014100023022817390739F6309751F51092250223
:1014200010922402B0932302A0932202BCCFD38354
:10143000C28340815181840F951FC817D90761F479
:101440004E5F5F4F88819981480F591F51834083B8
:101450008A819B81938382832115310509F0B0CF66
:10146000F0932502E09324029ECFFD01DC01C0CF62
:1014700013821282D7CF10E0CCE6D0E004C0FE0188
:101480000E9410092196CD36D107C9F7F894FFCFF5
:101490000000260280000000000031029101BE0120
:1014A0007E02EF01CD01E1014D756C74692D53741D
:1014B00072697020536F66742057686974652043A1
:0814C0007261776C000D0A0057
:00000001FF
